:020000040800F2
:1000000000000320D1230008D1070008D30700080F
:10001000D5070008D7070008D9070008000000002E
:10002000000000000000000000000000DB070008E6
:10003000DD07000800000000DF070008E1070008F6
:10004000212400082124000821240008212400087C
:10005000212400082124000821240008212400086C
:10006000212400082124000821240008212400085C
:10007000212400082124000821240008212400084C
:10008000212400082124000821240008212400083C
:10009000212400082124000821240008212400082C
:1000A000212400082124000821240008212400081C
:1000B000212400082124000821240008212400080C
:1000C00021240008212400082124000821240008FC
:1000D00021240008212400082124000821240008EC
:1000E00021240008212400082124000821240008DC
:1000F00021240008212400082124000821240008CC
:1001000021240008212400082124000821240008BB
:100110002124000821240008E90700082124000800
:1001200021240008F90700082124000821240008E0
:10013000212400082124000821240008212400088B
:10014000212400082124000821240008212400087B
:1001500021240008090800082124000819080008C3
:10016000212400082124000821240008212400085B
:100170002124000821240008212400080000000098
:10018000212400082124000821240008212400083B
:10019000212400082124000821240008212400082B
:0C01A00000000000000000002124000806
:1001AC0010B5054C237833B9044B13B10448AFF3A5
:1001BC0000800123237010BD0C0000200000000003
:1001CC007C24000808B5034B1BB103490348AFF36B
:1001DC00008008BD00000000100000207C240008F6
:1001EC0053B94AB9002908BF00281CBF4FF0FF3192
:1001FC004FF0FF3000F074B9ADF1080C6DE904CE8E
:10020C0000F006F8DDF804E0DDE9022304B07047E5
:10021C002DE9F047089D04468E46002B4DD18A42AD
:10022C00944669D9B2FA82F252B101FA02F3C2F1E0
:10023C00200120FA01F10CFA02FC41EA030E944071
:10024C004FEA1C48210CBEFBF8F61FFA8CF708FB92
:10025C0016E341EA034306FB07F199420AD91CEB6A
:10026C00030306F1FF3080F01F81994240F21C819C
:10027C00023E63445B1AA4B2B3FBF8F008FB1033E4
:10028C0044EA034400FB07F7A7420AD91CEB040419
:10029C0000F1FF3380F00A81A74240F207816444E9
:1002AC00023840EA0640E41B00261DB1D44000236E
:1002BC00C5E900433146BDE8F0878B4209D9002DD2
:1002CC0000F0EF800026C5E9000130463146BDE85C
:1002DC00F087B3FA83F6002E4AD18B4202D38242C6
:1002EC0000F2F980841A61EB030301209E46002D75
:1002FC00E0D0C5E9004EDDE702B9FFDEB2FA82F2CA
:10030C00002A40F09280A1EB0C014FEA1C471FFA27
:10031C008CFE0126200CB1FBF7F307FB131140EA0E
:10032C0001410EFB03F0884208D91CEB010103F1DB
:10033C00FF3802D2884200F2CB804346091AA4B29D
:10034C00B1FBF7F007FB101144EA01440EFB00FE71
:10035C00A64508D91CEB040400F1FF3102D2A645D6
:10036C0000F2BB800846A4EB0E0440EA03409CE775
:10037C00C6F12007B34022FA07FC4CEA030C20FA22
:10038C0007F401FA06F31C43F9404FEA1C4900FA42
:10039C0006F3B1FBF9F8200C1FFA8CFE09FB1811BF
:1003AC0040EA014108FB0EF0884202FA06F20BD932
:1003BC001CEB010108F1FF3A80F08880884240F282
:1003CC008580A8F102086144091AA4B2B1FBF9F0C6
:1003DC0009FB101144EA014100FB0EFE8E4508D9C1
:1003EC001CEB010100F1FF346CD28E456AD9023846
:1003FC00614440EA0840A0FB0294A1EB0E01A1422B
:10040C00C846A64656D353D05DB1B3EB080261EB98
:10041C000E0101FA07F722FA06F3F1401F43C5E972
:10042C00007100263146BDE8F087C2F12003D840A8
:10043C000CFA02FC21FA03F3914001434FEA1C47EA
:10044C001FFA8CFEB3FBF7F007FB10360B0C43EADC
:10045C00064300FB0EF69E4204FA02F408D91CEB8C
:10046C00030300F1FF382FD29E422DD9023863448A
:10047C009B1B89B2B3FBF7F607FB163341EA03412A
:10048C0006FB0EF38B4208D91CEB010106F1FF3879
:10049C0016D28B4214D9023E6144C91A46EA004670
:1004AC0038E72E46284605E70646E3E61846F8E602
:1004BC004B45A9D2B9EB020864EB0C0E0138A3E74B
:1004CC004646EAE7204694E74046D1E7D0467BE72C
:1004DC00023B614432E7304609E76444023842E7A4
:1004EC00704700BF72B6FEE700B595B03022002110
:1004FC0008A801F0B5FF002303930493059306931A
:10050C0007930193234A116C41F080511164126CD2
:10051C0002F080520192019A02931F4B1A6842F426
:10052C0040421A601B6803F440430293029B012370
:10053C0008934FF4A023099302230E934FF48002E7
:10054C000F920F221092D82211921293042313931C
:10055C0008A800F0F7FEB0B901F08CFDA8B90F2384
:10056C00039302230493002305934FF4A0530693A3
:10057C004FF480530793052103A801F031F930B9EA
:10058C0015B05DF804FBFFF7ADFFFFF7ABFFFFF70E
:10059C00A9FF00BF003802400070004008B501F010
:1005AC0039FEFFF7A1FF00F03BF801F07DFE00F0F3
:1005BC0073F801F09BFE0D4800F04CF9002201216C
:1005CC00084600F017F80A2001F050FE0022012125
:1005DC00022000F00FF80A2001F048FE0121044827
:1005EC0001F0D8FA642001F041FEF7E74C0100203D
:1005FC000008024008B50B4607490870F320487004
:10060C00AB208870CB700A716B234B7106220348A8
:10061C0000F01AFC08BD00BF28000020F8000020E4
:10062C0030B589B00024039404940594069407947F
:10063C000094174B1A6B42F080021A631A6B02F08B
:10064C0080020092009A01941A6B42F004021A6321
:10065C001A6B02F004020192019A02941A6B42F096
:10066C0001021A631B6B03F001030293029B094DF9
:10067C0022460121284601F087FA012303930493B3
:10068C000594069403A9284601F080F909B030BD01
:10069C00003802400008024008B50A480A4B0360C3
:1006AC004FF4E133436000238360C36003610C2289
:1006BC0042618361C36100F097FB00B908BDFFF78D
:1006CC0011FFFBE7F80000200014014030B589B0A1
:1006DC000023039304930593069307930268334B0B
:1006EC009A4201D009B030BD04460025019503F5AE
:1006FC0092335A6C42F020025A645A6C02F0200277
:10070C000192019A02951A6B42F004021A631B6B58
:10071C0003F004030293029BC0230393022304936C
:10072C00032306930823079303A9214801F02EF90C
:10073C002048214B03604FF0206343608560C56007
:10074C004FF48063036145618561C5610562456253
:10075C0001F0AAFA18BB174BE3639C631748184BBC
:10076C0003604FF020634360402383600023C36029
:10077C004FF48062026143618361C361036243622F
:10078C0001F092FA70B90D4BA3639C6300221146E1
:10079C00472001F0BFFC472001F0F4FCA2E7FFF773
:1007AC00A1FED8E7FFF79EFEEDE700BF0014014065
:1007BC000008024038000020286402409800002005
:1007CC00A0640240FEE7FEE7FEE7FEE7FEE77047A7
:1007DC007047704708B501F037FD08BD08B50248F1
:1007EC0000F080F808BD00BF4C01002008B502489D
:1007FC0001F052FB08BD00BF3800002008B50248CC
:10080C0001F04AFB08BD00BF9800002008B5024863
:10081C0000F046FC08BD00BFF800002082B00021AB
:10082C0000910B4B5A6C42F480425A645A6C02F49D
:10083C0080420092009A01911A6C42F080521A6424
:10084C001B6C03F080530193019B02B0704700BFF7
:10085C000038024090F83D30DBB2012B37D1022337
:10086C0080F83D300268D36843F00103D36003681D
:10087C00194A934220D0B3F1804F1DD0A2F57C428F
:10088C00934219D002F58062934215D002F5806232
:10089C00934211D002F5784293420DD002F570527A
:1008AC00934209D0A2F59432934205D01A6842F0D3
:1008BC0001021A60002070479A6802F00702062AAB
:1008CC0007D01A6842F001021A600020704701201C
:1008DC0070470020704700BF000001407047704710
:1008EC007047704770B504460368DE681D6915F0E3
:1008FC00020F10D016F0020F0DD06FF002021A6129
:10090C000123037703689B6913F0030F5ED0FFF795
:10091C00E6FF0023237715F0040F12D016F0040F16
:10092C000FD023686FF004021A6102232377236827
:10093C009B6913F4407F4FD02046FFF7D0FF002374
:10094C00237715F0080F12D016F0080F0FD023687C
:10095C006FF008021A61042323772368DB6913F014
:10096C00030F40D02046FFF7BAFF0023237715F082
:10097C00100F12D016F0100F0FD023686FF010026A
:10098C001A61082323772368DB6913F4407F31D085
:10099C002046FFF7A4FF0023237715F0010F02D0A8
:1009AC0016F0010F2DD115F0800F02D016F0800F2C
:1009BC002FD115F0400F02D016F0400F31D115F0A9
:1009CC00200F02D016F0200F33D170BDFFF786FF39
:1009DC002046FFF785FF9CE72046FFF77FFF204668
:1009EC00FFF77EFFABE72046FFF778FF2046FFF7C7
:1009FC0077FFBAE72046FFF771FF2046FFF770FF3D
:100A0C00C9E723686FF001021A61204601F0B6FCB9
:100A1C00C9E723686FF080021A61204600F0EDF8F8
:100A2C00C7E723686FF040021A612046FFF759FFB1
:100A3C00C5E723686FF020021A61204600F0DCF84D
:100A4C00C3E700000368324A904212D0B0F1804FE5
:100A5C000FD0A2F57C4290420BD002F580629042FE
:100A6C0007D002F58062904203D002F578429042A2
:100A7C0003D123F070034A681343254A90422AD0CD
:100A8C00B0F1804F27D0A2F57C42904223D002F5E2
:100A9C00806290421FD002F5806290421BD002F51A
:100AAC007842904217D002F57052904213D002F562
:100ABC00806290420FD002F5806290420BD0A2F57A
:100ACC009832904207D002F58062904203D002F532
:100ADC008062904203D123F44073CA68134323F01D
:100AEC0080034A6913438A68C2620A688262084AB0
:100AFC00904203D002F58062904201D10A690263F0
:100B0C00026842F0040202600122426103607047F5
:100B1C000000014040B310B5044690F83D30F3B1ED
:100B2C00022384F83D30214651F8040BFFF78AFF6D
:100B3C00012384F8463084F83E3084F83F3084F842
:100B4C00403084F8413084F8423084F8433084F8E3
:100B5C00443084F8453084F83D30002010BD80F8D6
:100B6C003C3001F0EBFBDBE70120704790F83C30A8
:100B7C00012B3DD010B4012380F83C30022380F8C7
:100B8C003D3003685A689C6822F0700C0A6842EA8F
:100B9C000C025A600368174A93421AD0B3F1804F83
:100BAC0017D0A2F57C42934213D002F58062934297
:100BBC000FD002F5806293420BD002F5784293423B
:100BCC0007D002F57052934203D0A2F594329342AF
:100BDC0004D124F080044A6814439C60012380F8FB
:100BEC003D30002380F83C3018465DF8044B7047CC
:100BFC00022070470000014070477047026802F104
:100C0C000C0353E8003F23F0C0030C3242E80031E0
:100C1C000029F3D1202380F841307047026802F19B
:100C2C000C0353E8003F23F490730C3242E800317C
:100C3C000029F3D1026802F1140353E8003F23F0BA
:100C4C000103143242E800310029F3D1036B012B6C
:100C5C0005D0202380F842300023036370470268DC
:100C6C0002F10C0353E8003F23F010030C3242E86E
:100C7C0000310029F3D1ECE790F84130DBB2212BA5
:100C8C0001D0022070478368B3F5805F17D0036AE8
:100C9C005A1C02621A7803685A60C38C9BB2013BDF
:100CAC009BB2C3844BB90268D36823F08003D36032
:100CBC000268D36843F04003D36000207047036997
:100CCC00002BE4D1036A1B880268C3F3080353604A
:100CDC00036A02330362E0E738B50446026813691D
:100CEC0023F44053C1680B431361836802691343B7
:100CFC0042691343C2691A430168CB6823F4164353
:100D0C0023F00C031343CB600268536923F4407344
:100D1C0081690B4353610368314A934206D002F553
:100D2C008062934202D000F011FE01E000F01EFE42
:100D3C00E369B3F5004F29D00021031849411B1872
:100D4C0041F10001C90041EA5371DB0018186368D6
:100D5C004FEA83024FEA937341F10001FFF740FA27
:100D6C00204DA5FB00325109642303FB11031B0129
:100D7C003233A5FB03235B0903F0F00202EB0112F3
:100D8C0003F00F03216813448B6038BD0023021855
:100D9C0043EB0301121841F10001C90041EA527101
:100DAC00D200101841F10001626892185B41FFF704
:100DBC0017FA0C4DA5FB00325109642303FB1103F8
:100DCC00DB003233A5FB03235B095A0002F4F872F3
:100DDC0002EB011203F00703216813448B60D4E784
:100DEC00001001401F85EB5160B310B5044690F81C
:100DFC00413013B3242384F841302268D36823F4A0
:100E0C000053D3602046FFF767FF2268136923F471
:100E1C00904313612268536923F02A0353612268BB
:100E2C00D36843F40053D36000206064202384F81B
:100E3C00413084F84230606310BD80F84030FFF7D9
:100E4C0045FCD7E70120704738B5134690F8412090
:100E5C00D2B2202A36D10446002935D00BB9012054
:100E6C0031E001628384C38400224264212084F82F
:100E7C004100A06B154DC563A06B154D0564A06BAF
:100E8C00144DC564A06B026522680432A06B00F09F
:100E9C0071FF30B110236364202384F841300120AA
:100EAC0011E023686FF040021A60226802F114030B
:100EBC0053E8003F43F08003143242E8003100292C
:100ECC00F3D100E0022038BD0120FCE7E70E00085A
:100EDC004F0F00085D0F0008704708B50346806B84
:100EEC001B681B6813F4807F1AD10023C38402682B
:100EFC0002F1140353E8003F23F08003143242E85C
:100F0C0000310029F3D1026802F10C0353E8003FD1
:100F1C0043F040030C3242E800310029F3D108BD04
:100F2C00FFF7DAFFFBE708B50168CA6822F0400258
:100F3C00CA60202280F84120FFF7CEFF002008BDB8
:100F4C00704708B5806BFFF7FBFF08BD7047704713
:100F5C0010B5846B23685A6994F84130DBB2212BAD
:100F6C0010D023685A6902F0400294F84230DBB288
:100F7C00222B11D0636C43F0100363642046FFF7FF
:100F8C00E6FF10BD02F08002002AEAD00023E384C1
:100F9C002046FFF733FEE4E7002AEBD00023E3857D
:100FAC002046FFF73BFEE5E708B5806B0023C385C1
:100FBC00FFF7CDFF08BD704790F84230DBB2222B13
:100FCC0069D18368B3F5805F4FD0826AB3F5805FD7
:100FDC0004D0002B56D10369002B53D103685B68F6
:100FEC001370836A01338362C38D9BB2013B9BB246
:100FFC00C385002B51D100B583B00268D36823F0B0
:10100C002003D3600268D36823F48073D360026832
:10101C00536923F001035361202380F842300023ED
:10102C004363036B012B33D100230363026802F18A
:10103C000C0353E8003F23F010030C3242E800315C
:10104C000029F3D103681A6812F0100F06D00022A1
:10105C0001921A6801925B680193019B818DFFF7E5
:10106C00AAFF002003B05DF804FB0269002AACD192
:10107C00826A03685B68C3F308031380836A0233D4
:10108C008362B1E703685B6803F07F031370A8E722
:10109C00FFF75CFFE5E70220704700207047000077
:1010AC0030B583B0044602681368D068516913F0F8
:1010BC000F0505D113F0200F02D010F0200F19D11D
:1010CC002DB111F0010119D110F4907F16D1216BC3
:1010DC0001297DD013F0800F03D010F0800F40F069
:1010EC00268113F0400F03D010F0400F40F0238105
:1010FC0003B030BD2046FFF75FFFF9E713F0010F97
:10110C0006D010F4807F03D0626C42F0010262645E
:10111C0013F0040F04D019B1626C42F00202626445
:10112C0013F0020F04D019B1626C42F00402626435
:10113C0013F0080F07D010F0200F00D119B1626C1A
:10114C0042F008026264626C002AD1D013F0200FC6
:10115C0002D010F0200F29D123685B6903F0400303
:10116C00626C12F0080F00D163B32046FFF756FDF6
:10117C0023685B6913F0400F20D0226802F114033E
:10118C0053E8003F23F04003143242E800310029B9
:10119C00F3D1E36B73B16A4A1A65E06B00F069FE38
:1011AC000028A5D0E06B036D9847A1E72046FFF718
:1011BC0003FFD1E72046FFF7CAFE99E72046FFF769
:1011CC00C6FE95E72046FFF7C2FE002363648FE757
:1011DC0013F0100F3FF47EAF10F0100F3FF47AAF06
:1011EC00002301931368019353680193019B536986
:1011FC0013F0400F5FD0E26B13685B689BB2002B5F
:10120C004AD0A18D994247D9E385D369B3F5807F44
:10121C0037D0226802F10C0353E8003F23F48073AB
:10122C000C3242E800310029F3D1226802F1140398
:10123C0053E8003F23F00103143242E80031002947
:10124C00F3D1226802F1140353E8003F23F040036A
:10125C00143242E800310029F3D1202384F84230C3
:10126C0000232363226802F10C0353E8003F23F0B0
:10127C0010030C3242E800310029F3D1E06B00F08E
:10128C00AEFD02236363A18DE38D9BB2C91A89B2B3
:10129C002046FFF790FE2BE7A18D99427FF428AFF3
:1012AC00D369B3F5807F7FF423AF022363632046B9
:1012BC00FFF781FE1CE7A18DE38D9BB2C91A89B2A1
:1012CC00E38D9BB2002B3FF413AF00293FF410AF1A
:1012DC00226802F10C0353E8003F23F490730C32A4
:1012EC0042E800300028F3D1226802F1140353E8DD
:1012FC00003F23F00103143242E800300028F3D100
:10130C00202384F8423000232363226802F10C036B
:10131C0053E8003F23F010030C3242E80030002861
:10132C00F3D1022363632046FFF745FEE0E6204637
:10133C00FFF7A2FCDCE62046FFF7F5FDD8E600BF80
:10134C00B50F0008002800F0E08170B582B00446AB
:10135C00036813F0010F3BD09F4B9B6803F00C0309
:10136C00042B2CD09C4B9B6803F00C03082B21D036
:10137C006368B3F5803F4FD0B3F5A02F52D0964B96
:10138C001A6822F480321A601A6822F480221A60D9
:10139C006368002B50D000F063FF05468E4B1B6832
:1013AC0013F4003F14D100F05BFF401B6428F5D907
:1013BC000320B1E1884B5B6813F4800FD8D0864BC7
:1013CC001B6813F4003F03D06368002B00F09F816F
:1013DC00236813F0020F54D07F4B9B6813F00C0F53
:1013EC003ED07D4B9B6803F00C03082B33D0E36895
:1013FC00002B68D0794B01221A6000F031FF0546B2
:10140C00754B1B6813F0020F54D100F029FF401BE1
:10141C000228F5D903207FE16F4A136843F4803327
:10142C001360B5E76C4B1A6842F480221A601A6894
:10143C0042F480321A60ABE700F012FF0546664BAF
:10144C001B6813F4003FC3D000F00AFF401B642854
:10145C00F5D9032060E1604B5B6813F4800FC6D1B3
:10146C005D4B1B6813F0020F03D0E368012B40F0B7
:10147C005081594A136823F0F803216943EAC103E8
:10148C001360236813F0080F42D063696BB3534B9E
:10149C000122C3F8802E00F0E3FE05464E4B5B6F35
:1014AC0013F0020F34D100F0DBFE401B0228F5D9FB
:1014BC00032031E1484A136823F0F803216943EA19
:1014CC00C1031360DDE7454B00221A6000F0C8FE33
:1014DC000546414B1B6813F0020FD2D000F0C0FE42
:1014EC00401B0228F5D9032016E13C4B0022C3F81F
:1014FC00802E00F0B5FE0546374B5B6F13F0020FE4
:10150C0006D000F0ADFE401B0228F5D9032003E104
:10151C00236813F0040F77D02F4B1B6C13F0805FF4
:10152C0033D1002301932C4B1A6C42F080521A6475
:10153C001B6C03F080530193019B0125284B1B6806
:10154C0013F4807F23D0A368012B34D0052B38D023
:10155C00214B1A6F22F001021A671A6F22F0040253
:10156C001A67A368002B3DD000F07AFE06461A4B92
:10157C001B6F13F0020F46D100F072FE801B41F27C
:10158C0088339842F3D90320C6E00025D6E7144AE5
:10159C00136843F48073136000F062FE0646104B30
:1015AC001B6813F4807FCED100F05AFE801B0228FA
:1015BC00F5D90320B0E0084A136F43F00103136719
:1015CC00CFE7054B1A6F42F004021A671A6F42F00C
:1015DC0001021A67C5E700BF00380240000047420D
:1015EC000070004000F03CFE0646524B1B6F13F09F
:1015FC00020F08D000F034FE801B41F28833984271
:10160C00F3D9032088E0EDB9A369002B00F08380A7
:10161C00484A926802F00C02082A51D0022B17D0CB
:10162C00454B00221A6600F01BFE0446414B1B681A
:10163C0013F0007F42D000F013FE001B0228F5D9F6
:10164C00032069E03B4A136C23F080531364DBE7FF
:10165C00394B00221A6600F003FE0546354B1B6819
:10166C0013F0007F06D000F0FBFD401B0228F5D9DB
:10167C00032051E0E369226A1343626A43EA82134E
:10168C00A26A5208013A43EA0243E26A43EA02635D
:10169C00284A5360284B01221A6600F0E1FD0446EB
:1016AC00244B1B6813F0007F06D100F0D9FD001B02
:1016BC000228F5D903202FE000202DE000202BE09C
:1016CC00012B2BD01B4B5B6803F48001E269914228
:1016DC0026D103F03F02216A8A4223D1616A47F680
:1016EC00C0721A40B2EB811F1ED103F44031A26AC2
:1016FC005208013AB1EB024F18D103F07063E26A61
:10170C00B3EB026F14D1002006E0012070470120DA
:10171C0002E0012000E0002002B070BD0120FBE7D8
:10172C000120F9E70120F7E70120F5E70120F3E7B5
:10173C000120F1E7003802400000474208B5254B74
:10174C009B6803F00C03042B3FD0082B3FD1214B9B
:10175C005A6802F03F025B6813F4800F12D01D4BE5
:10176C005968C1F388111C480023A1FB0001FEF746
:10177C0037FD184B5B68C3F3014301335B00B0FBCF
:10178C00F3F025E0134B5968C1F3881C4FEA4C1158
:10179C00B1EB0C006EEB0E0E4FEA8E1343EA906326
:1017AC008101091A63EB0E03DB0043EA5173C90094
:1017BC0011EB0C0C43F10003990200234FEA8C202F
:1017CC0041EA9C51FEF70CFDD3E7034800E00348C7
:1017DC0008BD00BF0038024040787D010024F400B1
:1017EC00002800F09B8070B50D4604464F4B1B68DB
:1017FC0003F00F038B4208D2CBB24C4A1370136820
:10180C0003F00F038B4240F08B80236813F0020F20
:10181C0017D013F0040F04D0454A936843F4E053F7
:10182C009360236813F0080F04D0414A936843F483
:10183C00604393603E4A936823F0F003A1680B4326
:10184C009360236813F0010F32D06368012B21D011
:10185C009A1E012A25D9364A126812F0020F61D05D
:10186C0033498A6822F0030213438B6000F0F8FCC2
:10187C0006462F4B9B6803F00C036268B3EB820F98
:10188C0016D000F0EDFC801B41F288339842F0D961
:10189C00032042E0264A126812F4003FE0D10120F6
:1018AC003BE0234A126812F0007FD9D1012034E0CA
:1018BC001E4B1B6803F00F03AB4207D9EAB21B4B5C
:1018CC001A701B6803F00F03AB422DD1236813F081
:1018DC00040F06D0164A936823F4E053E1680B43D7
:1018EC009360236813F0080F07D0114A936823F410
:1018FC006043216943EAC1039360FFF71FFF0C4B60
:10190C009B68C3F303130B4AD35CD8400A4B186093
:10191C000A4B186800F058FC002070BD012070477D
:10192C000120FAE70120F8E70120F6E7003C02402D
:10193C00003802409C24000808000020040000200D
:10194C00014B1868704700BF0800002008B5FFF76E
:10195C00F7FF044B9B68C3F38223034AD35CD84044
:10196C0008BD00BF00380240AC24000808B5FFF7E2
:10197C00E7FF044B9B68C3F34233034AD35CD84064
:10198C0008BD00BF00380240AC24000800230F2B18
:10199C0000F2F18070B582B061E085685E000324CE
:1019AC00B44025EA0405CC68B4402C4384604568F7
:1019BC0025EA02054C68C4F300129A402A4342609F
:1019CC005BE0DC08083450F8246003F00702950053
:1019DC000F22AA4026EA020E0A69AA4042EA0E0227
:1019EC0040F824205DE0092200E0002202FA0EF209
:1019FC002A430234604D45F82420604A94686FEA0B
:101A0C000C0224EA0C054E6816F4801F01D04CEA37
:101A1C0004055A4CA560E46802EA04054E6816F405
:101A2C00001F01D04CEA0405544CE560646802EADE
:101A3C0004054E6816F4003F01D04CEA04054F4CE7
:101A4C006560246822404D6815F4803F01D04CEA53
:101A5C0004024A4C226001330F2B00F28A800122CF
:101A6C009A400C6804EA020C32EA0404F3D14C6884
:101A7C0004F00304013C012C8FD94A6802F00302E4
:101A8C00032A09D0C4685D000322AA4024EA020498
:101A9C008A68AA402243C2604A6802F00302022A02
:101AAC008FD004684FEA430E032202FA0EF224EAA6
:101ABC0002044A6802F0030202FA0EF222430260A8
:101ACC004A6812F4403FC6D0002201922C4A546C52
:101ADC0044F480445464526C02F480420192019AA2
:101AEC009C08A51C244A52F8255003F003024FEA27
:101AFC00820E0F2202FA0EF225EA0205214A9042CA
:101B0C003FF473AF02F58062904222D002F58062FE
:101B1C00904220D002F5806290421ED002F5806285
:101B2C0090421CD002F5806290421AD002F580627D
:101B3C00904218D002F58062904216D002F5806275
:101B4C00904214D002F5806290423FF44CAF0A22CE
:101B5C004CE701224AE7022248E7032246E7042227
:101B6C0044E7052242E7062240E707223EE7082227
:101B7C003CE702B070BD704700380140003C0140AA
:101B8C0000380240000002400AB18161704709042C
:101B9C0081617047436901EA030221EA030141EACA
:101BAC0002418161704730B405682C6824F48024AC
:101BBC002C60046863608368402B05D003689960CF
:101BCC000368DA6030BC704703689A600368D960B8
:101BDC00F8E7000010B40368D9B210390C4AA2FB24
:101BEC00014212090B4CA25CC2655F2909D923F48E
:101BFC007F7323F0030304338365806D5DF8044B1E
:101C0C00704723F47F7323F003038365F5E700BF6C
:101C1C00ABAAAAAA94240008836A826992B9012B00
:101C2C000AD0022B02D00BB100207047C36A13F00C
:101C3C00807F28D100207047C36AB3F1C07F24D0C5
:101C4C0000207047B2F5005F09D0022B25D9032B79
:101C5C0025D1C36A13F0807F23D100207047032B5A
:101C6C0003D8DFE803F01404140A00207047C36A99
:101C7C0013F0807F0DD100207047C36AB3F1C07F91
:101C8C0009D00020704701207047012070470120C7
:101C9C0070470120704701207047012070470020D9
:101CAC00704701207047000070B5044600F0D8FA68
:101CBC00002C5BD00546022384F83530002384F8D1
:101CCC0034302268136823F00103136023681A6808
:101CDC0012F0010F0AD000F0C3FA431B052BF5D903
:101CEC0020236365032084F8350070BD1A682048F2
:101CFC0010406168A2680A43E1680A4321690A43FB
:101D0C0061690A43A1690A43E1690A43216A0A43EA
:101D1C000243616A04291ED01A602668756925F091
:101D2C000705636A1D43042B07D1A36A1D43E36AAD
:101D3C001BB12046FFF770FF90B975612046FFF785
:101D4C0049FFE26D3F2393408360002060650123CF
:101D5C0084F83530C9E7E16A206B01430A43DBE7BD
:101D6C0040236365012084F83500BEE70120BCE701
:101D7C003F8010F038B50446856D90F8340001288A
:101D8C002BD0012084F8340094F83500C0B201281F
:101D9C0004D0002384F83430022038BD022084F8AB
:101DAC003500002060652046FFF7FDFEE26D3F2305
:101DBC009340AB602268136843F016031360236CE6
:101DCC0023B12268136843F0080313602268136878
:101DDC0043F0010313600020DFE70220DDE770B55C
:101DEC000446866D00F03CFA94F83530DBB2022BD9
:101DFC0006D080236365002384F83430012070BD45
:101E0C0005462268136823F0160313602268536991
:101E1C0023F080035361236CE3B12268136823F031
:101E2C00080313602268136823F00103136023680E
:101E3C001B6813F0010F11D000F012FA431B052B95
:101E4C00F5D920236365032084F83500002384F83A
:101E5C003430D4E7A36C002BDFD1E3E7E26D3F23F2
:101E6C009340B360012384F83530002084F83400AB
:101E7C00C5E790F83530DBB2022B03D080234365E5
:101E8C0001207047052380F835300268136823F071
:101E9C000103136000207047F0B583B004460023A3
:101EAC000193724B1D68724BA3FB0535AD0A876D10
:101EBC003E68C26D08239340334210D003681A6801
:101ECC0012F0040F0BD01A6822F004021A60C26DD3
:101EDC0008239340BB60436D43F001034365E26DFF
:101EEC0001239340334209D02268526912F0800FCB
:101EFC0004D0BB60636D43F002036365E26D0423A1
:101F0C009340334209D02268126812F0020F04D0B9
:101F1C00BB60636D43F004036365E26D1023934073
:101F2C00334224D02268126812F0080F1FD0BB6015
:101F3C0023681A6812F4802F0DD01B6813F4002F3D
:101F4C0004D1236C9BB12046984710E0A36C73B16D
:101F5C00204698470BE01A6812F4807F03D11A6868
:101F6C0022F008021A60236C0BB120469847E26DF0
:101F7C0020239340334255D02268126812F0100F80
:101F8C0050D0BB6094F83530DBB2052B0ED02368F3
:101F9C001A6812F4802F33D01B6813F4002F2AD147
:101FAC00636C002B3ED0204698473BE022681368B8
:101FBC0023F0160313602268536923F080035361E6
:101FCC00236CA3B12268136823F008031360E26D3D
:101FDC003F239340BB60012384F83530002384F801
:101FEC003430236D002B3FD0204698473CE0A36C47
:101FFC00002BE7D1EBE7E36BA3B12046984711E048
:10200C001A6812F4807F09D11A6822F010021A6043
:10201C00012384F83530002384F83430E36B0BB1A2
:10202C0020469847636DFBB1636D13F0010F17D019
:10203C00052384F835302268136823F001031360FC
:10204C00019B01330193AB4204D823681B6813F046
:10205C00010FF5D1012384F83530002384F8343096
:10206C00E36C0BB12046984703B0F0BD080000208C
:10207C00B5814E1B10B582B000230193194B1A6C1D
:10208C0042F080521A641B6C03F080530193019B45
:10209C00154B01221A6400F0E3F80446134B5B68FD
:1020AC0013F4803F08D100F0DBF8001BB0F57A7F09
:1020BC00F4D9032002B010BD0B4B01225A6400F07E
:1020CC00CFF80446094B5B6813F4003F07D100F0CE
:1020DC00C7F8001BB0F57A7FF4D90320EAE700209B
:1020EC00E8E700BF0038024000000E4200700040DC
:1020FC00074AD36823F4E0631B041B0C000200F4B2
:10210C00E060034343F0BF6343F40033D360704794
:10211C0000ED00E000B5194BDB68C3F30223C3F1FB
:10212C00070CBCF1040F28BF4FF0040C03F1040E94
:10213C00BEF1060F18D9033B4FF0FF3E0EFA0CFC14
:10214C0021EA0C0199400EFA03F322EA0303194326
:10215C0000280BDB0901C9B200F1604000F56140B9
:10216C0080F800135DF804FB0023E5E700F00F0096
:10217C000901C9B2024B1954F4E700BF00ED00E0AD
:10218C0014ED00E0002807DB00F01F0240090123DA
:10219C009340024A42F82030704700BF00E100E053
:1021AC000138B0F1807F0BD24FF0E0235861054A23
:1021BC00F02182F823100020986107221A617047E1
:1021CC000120704700ED00E010B504460E4B187866
:1021DC004FF47A73B3FBF0F30C4A1068B0FBF3F0D6
:1021EC00FFF7DEFF68B90F2C01D901200AE00022AD
:1021FC0021464FF0FF30FFF78DFF054B1C60002090
:10220C0000E0012010BD00BF0000002008000020ED
:10221C000400002008B50B4B1A6842F400721A60D7
:10222C001A6842F480621A601A6842F480721A606A
:10223C000320FFF75DFF0F20FFF7C6FFFEF7EEFA56
:10224C00002008BD003C0240034A1168034B1B7878
:10225C000B441360704700BF4001002000000020B9
:10226C00014B1868704700BF4001002038B5044688
:10227C00FFF7F6FF0546B4F1FF3F02D0044B1B7885
:10228C001C44FFF7EDFF401BA042FAD338BD00BF42
:10229C0000000020034AD2F8883043F47003C2F8DF
:1022AC008830704700ED00E010B582B00024019436
:1022BC000D4B1A6B42F480021A631B6B03F4800300
:1022CC000193019B224621463920FFF723FF392039
:1022DC00FFF758FF224621464520FFF71BFF4520FC
:1022EC00FFF750FF02B010BD0038024000B583B0BC
:1022FC000023009301930F480F4A02605922426059
:10230C00836042F20F72C2608361FEF703FC50B926
:10231C0000230093019369460648FEF727FC28B971
:10232C0003B05DF804FBFEF7DDF8F1E7FEF7DAF831
:10233C00F6E700BF4C0100200010004002680E4B75
:10234C009A4200D0704700B583B00021019103F58B
:10235C000A331A6C42F010021A641B6C03F010035F
:10236C000193019B0A463620FFF7D4FE3620FFF777
:10237C0009FF03B05DF804FB0010004002680D4B30
:10238C009A4200D070470C4A1368013313600B4912
:10239C0081FB0321DA17C2EBA11240F6B83101FB25
:1023AC001232002AEED1064A1368B3FA83F35B09A2
:1023BC001360E7E70010004044010020F119760596
:1023CC0048010020DFF834D0FFF764FF0C480D49BA
:1023DC000D4A002302E0D458C4500433C4188C4274
:1023EC00F9D30A4A0A4C002301E013600432A242DA
:1023FC00FBD300F011F8FEF7D1F870470000032072
:10240C00000000200C000020C42400080C00002058
:10241C0094010020FEE7000070B50D4D0D4C641BBF
:10242C00A4100026A64209D10B4D0C4C00F020F84C
:10243C00641BA4100026A64205D170BD55F8043BC0
:10244C0098470136EEE755F8043B98470136F2E71A
:10245C00BC240008BC240008BC240008C0240008CC
:10246C0002440346934200D1704703F8011BF9E77D
:10247C00F8B500BFF8BC08BC9E467047F8B500BF65
:08248C00F8BC08BC9E46704735
:1024940000061016000610160000000000000000E0
:1024A40001020304060708090000000001020304F6
:0824B40068DDFF7F010000005C
:0424BC00D101000842
:0424C000AD01000862
:0C24C40001000000100000000024F400E3
:04000005080023D1FB
:00000001FF
